{
  "contractName": "A",
  "abi": [
    {
      "inputs": [],
      "name": "num",
      "outputs": [
        {
          "internalType": "uint256",
          "name": "",
          "type": "uint256"
        }
      ],
      "stateMutability": "view",
      "type": "function"
    },
    {
      "inputs": [],
      "name": "sender",
      "outputs": [
        {
          "internalType": "address",
          "name": "",
          "type": "address"
        }
      ],
      "stateMutability": "view",
      "type": "function"
    },
    {
      "inputs": [],
      "name": "value",
      "outputs": [
        {
          "internalType": "uint256",
          "name": "",
          "type": "uint256"
        }
      ],
      "stateMutability": "view",
      "type": "function"
    },
    {
      "inputs": [
        {
          "internalType": "address",
          "name": "_contract",
          "type": "address"
        },
        {
          "internalType": "uint256",
          "name": "_num",
          "type": "uint256"
        }
      ],
      "name": "setVars",
      "outputs": [],
      "stateMutability": "payable",
      "type": "function"
    }
  ],
  "bytecode": "0x608060405234801561001057600080fd5b50610407806100206000396000f3fe60806040526004361061003f5760003560e01c80633fa4f245146100445780634e70b1dc1461006f57806367e404ce1461009a578063d1e0f308146100c5575b600080fd5b34801561005057600080fd5b506100596100e1565b604051610066919061022c565b60405180910390f35b34801561007b57600080fd5b506100846100e7565b604051610091919061022c565b60405180910390f35b3480156100a657600080fd5b506100af6100ed565b6040516100bc9190610288565b60405180910390f35b6100df60048036038101906100da9190610300565b610113565b005b60025481565b60005481565b600160009054906101000a900473ffffffffffffffffffffffffffffffffffffffff1681565b6000808373ffffffffffffffffffffffffffffffffffffffff168360405160240161013e919061022c565b6040516020818303038152906040527f6466414b000000000000000000000000000000000000000000000000000000007bffffffffffffffffffffffffffffffffffffffffffffffffffffffff19166020820180517bffffffffffffffffffffffffffffffffffffffffffffffffffffffff83818316178352505050506040516101c891906103ba565b600060405180830381855af49150503d8060008114610203576040519150601f19603f3d011682016040523d82523d6000602084013e610208565b606091505b509150915050505050565b6000819050919050565b61022681610213565b82525050565b6000602082019050610241600083018461021d565b92915050565b600073ffffffffffffffffffffffffffffffffffffffff82169050919050565b600061027282610247565b9050919050565b61028281610267565b82525050565b600060208201905061029d6000830184610279565b92915050565b600080fd5b6102b181610267565b81146102bc57600080fd5b50565b6000813590506102ce816102a8565b92915050565b6102dd81610213565b81146102e857600080fd5b50565b6000813590506102fa816102d4565b92915050565b60008060408385031215610317576103166102a3565b5b6000610325858286016102bf565b9250506020610336858286016102eb565b9150509250929050565b600081519050919050565b600081905092915050565b60005b83811015610374578082015181840152602081019050610359565b83811115610383576000848401525b50505050565b600061039482610340565b61039e818561034b565b93506103ae818560208601610356565b80840191505092915050565b60006103c68284610389565b91508190509291505056fea2646970667358221220649bda08a255f0b62089b957f150e047a1ee806603f1df4d8d6d2cd9404bbc2664736f6c634300080b0033",
  "immutableReferences": {},
  "source": "// SPDX-License-Identifier: MIT\npragma solidity ^0.8.10;\n\n// NOTE: Deploy this contract first\ncontract B {\n    // NOTE: storage layout must be the same as contract A\n    uint256 public num;\n    address public sender;\n    uint256 public value;\n\n    function setVars(uint256 _num) public payable {\n        num = _num;\n        sender = msg.sender;\n        value = msg.value;\n    }\n}\n\ncontract A {\n    uint256 public num;\n    address public sender;\n    uint256 public value;\n\n    function setVars(address _contract, uint256 _num) public payable {\n        // A's storage is set, B is not modified.\n        (bool success, bytes memory data) = _contract.delegatecall(\n            abi.encodeWithSignature(\"setVars(uint256)\", _num)\n        );\n    }\n}\n\n/*\ndelegatecall is a low level function similar to call.\n\nWhen contract A executes delegatecall to contract B, B's code is excuted\n\nwith contract A's storage, msg.sender and msg.value.\n\n\n*/\n",
  "sourcePath": "/Users/wei/Desktop/project/wyhljsykl/solidity_example/Delegatecall/contracts/Delegatecall.sol",
  "compiler": {
    "name": "solc",
    "version": "0.8.11+commit.d7f03943.Emscripten.clang"
  },
  "schemaVersion": "3.4.5",
  "updatedAt": "2022-02-24T14:15:08.671Z",
  "devdoc": {
    "kind": "dev",
    "methods": {},
    "version": 1
  },
  "userdoc": {
    "kind": "user",
    "methods": {},
    "version": 1
  }
}