{
  "contractName": "Account",
  "abi": [
    {
      "inputs": [
        {
          "internalType": "address payable",
          "name": "_owner",
          "type": "address"
        }
      ],
      "stateMutability": "nonpayable",
      "type": "constructor"
    },
    {
      "stateMutability": "payable",
      "type": "fallback"
    },
    {
      "inputs": [],
      "name": "owner",
      "outputs": [
        {
          "internalType": "address",
          "name": "",
          "type": "address"
        }
      ],
      "stateMutability": "view",
      "type": "function"
    },
    {
      "stateMutability": "payable",
      "type": "receive"
    },
    {
      "inputs": [
        {
          "internalType": "address",
          "name": "_owner",
          "type": "address"
        }
      ],
      "name": "setOwner",
      "outputs": [],
      "stateMutability": "nonpayable",
      "type": "function"
    },
    {
      "inputs": [
        {
          "internalType": "address payable",
          "name": "recipient",
          "type": "address"
        }
      ],
      "name": "destroy",
      "outputs": [],
      "stateMutability": "nonpayable",
      "type": "function"
    }
  ],
  "bytecode": "0x608060405234801561001057600080fd5b5060405161045f38038061045f833981810160405281019061003291906100db565b806000806101000a81548173ffffffffffffffffffffffffffffffffffffffff021916908373ffffffffffffffffffffffffffffffffffffffff16021790555050610108565b600080fd5b600073ffffffffffffffffffffffffffffffffffffffff82169050919050565b60006100a88261007d565b9050919050565b6100b88161009d565b81146100c357600080fd5b50565b6000815190506100d5816100af565b92915050565b6000602082840312156100f1576100f0610078565b5b60006100ff848285016100c6565b91505092915050565b610348806101176000396000f3fe6080604052600436106100375760003560e01c8062f55d9d1461004057806313af4035146100695780638da5cb5b146100925761003e565b3661003e57005b005b34801561004c57600080fd5b5061006760048036038101906100629190610250565b6100bd565b005b34801561007557600080fd5b50610090600480360381019061008b91906102bb565b61012e565b005b34801561009e57600080fd5b506100a76101c9565b6040516100b491906102f7565b60405180910390f35b60008054906101000a900473ffffffffffffffffffffffffffffffffffffffff1673ffffffffffffffffffffffffffffffffffffffff163373ffffffffffffffffffffffffffffffffffffffff161461011557600080fd5b8073ffffffffffffffffffffffffffffffffffffffff16ff5b60008054906101000a900473ffffffffffffffffffffffffffffffffffffffff1673ffffffffffffffffffffffffffffffffffffffff163373ffffffffffffffffffffffffffffffffffffffff161461018657600080fd5b806000806101000a81548173ffffffffffffffffffffffffffffffffffffffff021916908373ffffffffffffffffffffffffffffffffffffffff16021790555050565b60008054906101000a900473ffffffffffffffffffffffffffffffffffffffff1681565b600080fd5b600073ffffffffffffffffffffffffffffffffffffffff82169050919050565b600061021d826101f2565b9050919050565b61022d81610212565b811461023857600080fd5b50565b60008135905061024a81610224565b92915050565b600060208284031215610266576102656101ed565b5b60006102748482850161023b565b91505092915050565b6000610288826101f2565b9050919050565b6102988161027d565b81146102a357600080fd5b50565b6000813590506102b58161028f565b92915050565b6000602082840312156102d1576102d06101ed565b5b60006102df848285016102a6565b91505092915050565b6102f18161027d565b82525050565b600060208201905061030c60008301846102e8565b9291505056fea2646970667358221220e9010856a10bff77ef9b41693a958b126c7bce056b01ce03bf1599064906a9ed64736f6c634300080b0033",
  "immutableReferences": {},
  "source": "// SPDX-License-Identifier: MIT\npragma solidity ^0.8.10;\n\ncontract Account {\n    address public owner;\n\n    constructor(address payable _owner) {\n        owner = _owner;\n    }\n\n    function setOwner(address _owner) public {\n        require(msg.sender == owner);\n        owner = _owner;\n    }\n\n    function destroy(address payable recipient) public {\n        require(msg.sender == owner);\n        selfdestruct(recipient);\n    }\n\n    fallback() external payable {}\n    receive() external payable {}\n\n}\n",
  "sourcePath": "/Users/wei/Desktop/project/wyhljsykl/solidity_example/Create2/contracts/Account.sol",
  "compiler": {
    "name": "solc",
    "version": "0.8.11+commit.d7f03943.Emscripten.clang"
  },
  "schemaVersion": "3.4.5",
  "updatedAt": "2022-02-25T03:35:36.461Z",
  "devdoc": {
    "kind": "dev",
    "methods": {},
    "version": 1
  },
  "userdoc": {
    "kind": "user",
    "methods": {},
    "version": 1
  }
}