{
  "contractName": "Factory",
  "abi": [
    {
      "anonymous": false,
      "inputs": [
        {
          "indexed": false,
          "internalType": "address",
          "name": "addr",
          "type": "address"
        },
        {
          "indexed": false,
          "internalType": "uint256",
          "name": "salt",
          "type": "uint256"
        }
      ],
      "name": "Deployed",
      "type": "event"
    },
    {
      "inputs": [
        {
          "internalType": "bytes",
          "name": "code",
          "type": "bytes"
        },
        {
          "internalType": "uint256",
          "name": "salt",
          "type": "uint256"
        }
      ],
      "name": "deploy",
      "outputs": [],
      "stateMutability": "nonpayable",
      "type": "function"
    }
  ],
  "bytecode": "0x608060405234801561001057600080fd5b5061033e806100206000396000f3fe608060405234801561001057600080fd5b506004361061002b5760003560e01c80639c4ae2d014610030575b600080fd5b61004a60048036038101906100459190610233565b61004c565b005b6000818351602085016000f59050803b61006557600080fd5b7fb03c53b28e78a88e31607a27e1fa48234dce28d5d9d9ec7b295aeb02e674a1e181836040516100969291906102df565b60405180910390a1505050565b6000604051905090565b600080fd5b600080fd5b600080fd5b600080fd5b6000601f19601f8301169050919050565b7f4e487b7100000000000000000000000000000000000000000000000000000000600052604160045260246000fd5b61010a826100c1565b810181811067ffffffffffffffff82111715610129576101286100d2565b5b80604052505050565b600061013c6100a3565b90506101488282610101565b919050565b600067ffffffffffffffff821115610168576101676100d2565b5b610171826100c1565b9050602081019050919050565b82818337600083830152505050565b60006101a061019b8461014d565b610132565b9050828152602081018484840111156101bc576101bb6100bc565b5b6101c784828561017e565b509392505050565b600082601f8301126101e4576101e36100b7565b5b81356101f484826020860161018d565b91505092915050565b6000819050919050565b610210816101fd565b811461021b57600080fd5b50565b60008135905061022d81610207565b92915050565b6000806040838503121561024a576102496100ad565b5b600083013567ffffffffffffffff811115610268576102676100b2565b5b610274858286016101cf565b92505060206102858582860161021e565b9150509250929050565b600073ffffffffffffffffffffffffffffffffffffffff82169050919050565b60006102ba8261028f565b9050919050565b6102ca816102af565b82525050565b6102d9816101fd565b82525050565b60006040820190506102f460008301856102c1565b61030160208301846102d0565b939250505056fea2646970667358221220c4213f622c5e6a376c5ffc7a5551d8280c2e4ddef63796cd3966abf46ff54b7764736f6c634300080b0033",
  "immutableReferences": {},
  "source": "// SPDX-License-Identifier: MIT\npragma solidity ^0.8.10;\n\ncontract Factory {\n    event Deployed(address addr, uint256 salt);\n\n    function deploy(bytes memory code, uint256 salt) public {\n        address addr;\n        assembly {\n            addr := create2(0, add(code, 0x20), mload(code), salt)\n            if iszero(extcodesize(addr)) {\n                revert(0, 0)\n            }\n        }\n\n        emit Deployed(addr, salt);\n    }\n}\n",
  "sourcePath": "/Users/wei/Desktop/project/wyhljsykl/solidity_example/Create2/contracts/Factory.sol",
  "compiler": {
    "name": "solc",
    "version": "0.8.11+commit.d7f03943.Emscripten.clang"
  },
  "schemaVersion": "3.4.5",
  "updatedAt": "2022-02-25T03:27:00.006Z",
  "devdoc": {
    "kind": "dev",
    "methods": {},
    "version": 1
  },
  "userdoc": {
    "kind": "user",
    "methods": {},
    "version": 1
  }
}